:100000000C9435000C945D000C945D000C945D0024
:100010000C945D000C945D000C945D000C945D00EC
:100020000C945D000C945D000C945D000C945D00DC
:100030000C945D000C9425020C945D000C945D0002
:100040000C9483010C945D000C94F3010C94CD018D
:100050000C945D000C945D000C945D000C945D00AC
:100060000C945D000C945D004E0411241FBECFEF74
:10007000D8E0DEBFCDBF23E0AAE2B1E001C01D920F
:10008000AE3DB207E1F711E0A0E0B1E0EAEBFFE03E
:1000900002C005900D92AA32B107D9F710E0C5E36E
:1000A000D0E004C02197FE010E94B707C433D107F6
:1000B000C9F70E94BE020C94DB070C940000CF929B
:1000C000DF92EF92FF920F931F93CF93DF936C0118
:1000D0007A018B01C0E0D0E0CE15DF0581F0D801B8
:1000E0006D918D01D601ED91FC910190F081E02D93
:1000F000C6010995892B11F02196EECF7E01C7012B
:10010000DF91CF911F910F91FF90EF90DF90CF90F3
:100110000895089580E090E00895FC01538D448D8A
:10012000252F30E0842F90E0821B930B541710F0A2
:10013000CF96089501970895FC01918D828D9817AF
:1001400061F0828DDF01A80FB11D5D968C91928DBB
:100150009F5F9F73928F90E008958FEF9FEF0895B8
:10016000FC01918D828D981731F0828DE80FF11D81
:10017000858D90E008958FEF9FEF0895FC01918D9C
:10018000228D892F90E0805C9F4F821B91098F7395
:10019000992708958FE393E00E94BE0021E0892B08
:1001A00009F420E0822F0895FC01848DDF01A80F5F
:1001B000B11DA35ABF4F2C91848D90E001968F738F
:1001C0009927848FA689B7892C93A089B1898C91AE
:1001D000837080648C93938D848D981306C00288FD
:1001E000F389E02D80818F7D80830895EF92FF92C7
:1001F0000F931F93CF93DF93EC0181E0888F9B8D4A
:100200008C8D981305C0E889F989808185FD26C009
:10021000F62E0B8D10E00F5F1F4F0F731127E02E8E
:100220008C8DE8120CC00FB607FCFACFE889F9896B
:10023000808185FFF5CFCE010E94D400F1CF8B8D58
:10024000FE01E80FF11DE35AFF4FF0829FB7F894CB
:100250000B8FEA89FB89808180620AC09FB7F8947E
:10026000EE89FF896083E889F989808183708064E1
:1002700080839FBF81E090E0DF91CF911F910F912C
:10028000FF90EF900895CF93DF93EC01888D882342
:10029000C9F0EA89FB89808185FD05C0A889B989F3
:1002A0008C9186FD0FC00FB607FCF5CF808185FFCE
:1002B000F2CFA889B9898C9185FFEDCFCE010E943C
:1002C000D400E7CFDF91CF91089580E090E0892BB3
:1002D00029F00E94CA0081110C9400000895009733
:1002E00069F0FC0101900020E9F73197AF01481B4C
:1002F000590BBC018FE393E00C945F0080E090E029
:1003000008950E94BD071F920F920FB60F921124FD
:100310002F933F938F939F93AF93BF9380913B0312
:1003200090913C03A0913D03B0913E0330913A037C
:1003300023E0230F2D3720F40196A11DB11D05C028
:1003400026E8230F0296A11DB11D20933A03809346
:100350003B0390933C03A0933D03B0933E038091F5
:10036000360390913703A0913803B0913903019679
:10037000A11DB11D8093360390933703A0933803DA
:10038000B0933903BF91AF919F918F913F912F917E
:100390000F900FBE0F901F9018951F920F920FB6DF
:1003A0000F9211242F933F934F935F936F937F93FB
:1003B0008F939F93AF93BF93EF93FF938FE393E05C
:1003C0000E94D400FF91EF91BF91AF919F918F91C7
:1003D0007F916F915F914F913F912F910F900FBE41
:1003E0000F901F9018951F920F920FB60F92112425
:1003F0002F938F939F93EF93FF93E0914F03F0918F
:1004000050038081E0915503F091560382FD12C0A4
:100410009081809158038F5F8F73209159038217C9
:1004200051F0E0915803F0E0E15CFC4F958F809330
:10043000580301C08081FF91EF919F918F912F917F
:100440000F900FBE0F901F9018951F920F920FB62E
:100450000F9211242F933F934F935F938F939F930A
:10046000AF93BF93EF93FF9380912A0190912B015B
:10047000A0912C01B0912D010196A11DB11D809379
:100480002A0190932B01A0932C01B0932D01809110
:100490002F019091300101969093300180932F01AC
:1004A000209131014091320130913301E42FF32F3B
:1004B000E20FF11DE20FF11D2081318182179307B8
:1004C00009F04DC080912E01882341F08091800079
:1004D0008F738093800010922E0108C0809180005D
:1004E000806C8093800081E080932E011092300117
:1004F00010922F01409131014F5F40933101E09103
:100500003201F091330124813581220F331F86811E
:100510009781880F991F820F931F049650E0481708
:100520005907E8F02C5F3F4F2093310180912A0159
:1005300090912B01A0912C01B0912D01813898430D
:10054000A140B10560F0809180008F73809380009E
:1005500010922E01809181008E7F80938100FF9107
:10056000EF91BF91AF919F918F915F914F913F918B
:100570002F910F900FBE0F901F901895CF93DF9380
:10058000CDB7DEB7C35CD1090FB6F894DEBF0FBE9E
:10059000CDBF789484B5826084BD84B5816084BD0C
:1005A00085B5826085BD85B5816085BD80916E0011
:1005B000816080936E001092810080918100826042
:1005C000809381008091810081608093810080917F
:1005D00080008160809380008091B100846080936E
:1005E000B1008091B00081608093B00080917A006A
:1005F000846080937A0080917A00826080937A0090
:1006000080917A00816080937A0080917A0080687E
:1006100080937A001092C100E0914F03F091500353
:1006200082E08083E0914B03F0914C031082E091D3
:100630004D03F0914E038FEC808310925703E091AD
:100640005303F091540386E08083E0915103F091CD
:100650005203808180618083E0915103F0915203C5
:10066000808188608083E0915103F0915203808102
:1006700080688083E0915103F091520380818F7DE7
:10068000808382E191E00E946F0188E191E00E9405
:100690006F0158E3A52E51E0B52E62E0C62E78E139
:1006A000772EDD24D394E4E06E2E8FE393E00E9456
:1006B000BE00181619060CF0EEC08FE393E00E94FE
:1006C0009C0020913403309135038D3091F08A30B5
:1006D00081F02F3F91E0390760F4A9014F5F5F4F30
:1006E0005093350340933403F901EC5CFE4F808353
:1006F000D2C0F901EC5CFE4F1082109235031092CB
:10070000340344E050E06BE171E084E391E00E9447
:10071000CD07892B09F0BFC0CE53DF4FB982A88225
:10072000C25CD0408E010F5F1F4FE12CF12C4801BD
:1007300060E270E0CE53DF4F88819981C25CD04087
:100740000E94C207CE53DF4F99838883C25CD0409A
:10075000009779F0EFEFEE1AFE0A40E150E0BE019B
:100760006E537F4F0E947B04F801619371938F0158
:10077000DFCF90923301809232012998219A109212
:100780008000109281006B817C8180E090E00E946B
:10079000BC0620E030E040E851E40E944A0721E333
:1007A00039E047E75EE30E944A0720E030E040E896
:1007B0005FE30E9420060E948D067093870060937D
:1007C0008600769567957093890060938800C09243
:1007D000800070928100109285001092840016BAF9
:1007E000D0926F00609231011092300110922F016F
:1007F00080918000806C80938000D0922E01809147
:10080000810081608093810080E291E00E946F010D
:10081000512C052D10E00E151F05C8F586E291E05C
:100820000E946F01000F111FF401E00FF11F4081C2
:10083000518160E070E0CF53DF4F1882C15CD0403F
:1008400081EA90E08C0F9D1F80968A019B010F70BA
:1008500011272227332724E07695679557954795EA
:100860002A95D1F701970A3014F4005D01C0095CA4
:10087000FC010083411551056105710531F70E94A6
:100880006F0184E291E00E946F015394C2CF88E12E
:1008900091E00E946F010E94650107CFEFE3F3E052
:1008A0001382128288EE93E0A0E0B0E08483958307
:1008B000A683B78384E091E09183808385EC90E008
:1008C0009587848784EC90E09787868780EC90E01A
:1008D000918B808B81EC90E0938B828B82EC90E00B
:1008E000958B848B86EC90E0978B868B118E128E85
:1008F000138E148E0895A0E0B0E0E1E8F4E00C94CB
:10090000DB055C016B017A016115710519F0FB01D2
:1009100091838083E114F10429F0C7010297839742
:1009200008F0E5C0E5012196F5011081812F90E0E6
:100930000E949105892B11F05E01F4CF1D3229F43C
:100940002196F501118101E007C01B3221F4E50178
:100950002296F501118100E0E114F10409F1F0E1C2
:10096000EF16F10429F43FC010E3E114F10421F182
:1009700028E0E216F10401F154F4E2E0EE16F1048D
:1009800021F5812C912CA12CB0E4BB2E3EC0FAE0C5
:10099000EF16F10439F020E1E216F104B1F430C0B1
:1009A000103319F1FAE0EF2EF12CACEC8A2E982CD2
:1009B000A82CACE0BA2E29C078E0E72EF12C812CCF
:1009C000912CA12CE0E1BE2E20C060E070E080E020
:1009D00090E897010F2C000C440B550B0E94AD05BD
:1009E00049015A0112C0103359F488818F7D88352E
:1009F00009F0BACF19812296026080E1E82EF12C2D
:100A0000812C912CA12C68E0B62E40E060E070E0D3
:100A1000CB0127010F2C000C66087708FE0150ED72
:100A2000352E310E29E0231570F42FEB210F2A31DA
:100A300018F439EC332E06C02FE9210F2A3118F5AE
:100A400029EA322E310E232D30E02E153F05DCF43D
:100A500047FD16C086169706A806B90670F0A301D2
:100A600092010E949D05630D711D811D911D6130D4
:100A70007105810520E8920710F04FEF01C041E0B9
:100A800021961081CBCF202F2170C114D10471F099
:100A9000442329F02197F601D183C08307C001FFC9
:100AA00019C02297F601D183C08314C047FF12C03A
:100AB000222329F060E070E080E090E804C06FEF4E
:100AC0007FEF8FEF9FE722E230E03093DD0320934A
:100AD000DC0309C0222381F0909580957095619583
:100AE0007F4F8F4F9F4F462F372F282F12C040E048
:100AF00030E020E090E00DC097FFF5CF82E290E07B
:100B00009093DD038093DC036FEF7FEF8FEF9FE720
:100B1000EACF642F732F822FCDB7DEB7E1E10C94BB
:100B2000F70591110C949A05803219F0895085507F
:100B3000C8F70895992788270895DB018F939F931D
:100B40000E94CF05BF91AF91A29F800D911DA39FE1
:100B5000900DB29F900D11240895A1E21A2EAA1BA8
:100B6000BB1BFD010DC0AA1FBB1FEE1FFF1FA2175D
:100B7000B307E407F50720F0A21BB30BE40BF50B5A
:100B8000661F771F881F991F1A9469F760957095E3
:100B9000809590959B01AC01BD01CF0108950E9405
:100BA0001106A59F900DB49F900DA49F800D911DDF
:100BB000112408952F923F924F925F926F927F92ED
:100BC0008F929F92AF92BF92CF92DF92EF92FF925D
:100BD0000F931F93CF93DF93CDB7DEB7CA1BDB0B09
:100BE0000FB6F894DEBF0FBECDBF09942A883988AE
:100BF00048885F846E847D848C849B84AA84B984B5
:100C0000C884DF80EE80FD800C811B81AA81B981C0
:100C1000CE0FD11D0FB6F894DEBF0FBECDBFED01D4
:100C20000895A29FB001B39FC001A39F700D811DC5
:100C30001124911DB29F700D811D1124911D0895E5
:100C40005058BB27AA270E9438060C9410070E9410
:100C5000020738F00E94090720F039F49F3F19F489
:100C600026F40C94FF060EF4E095E7FB0C94F906CD
:100C7000E92F0E94210758F3BA1762077307840708
:100C8000950720F079F4A6F50C9443070EF4E0954F
:100C90000B2EBA2FA02D0B01B90190010C01CA0136
:100CA000A0011124FF27591B99F0593F50F4503EE1
:100CB00068F11A16F040A22F232F342F4427585FD3
:100CC000F3CF469537952795A795F0405395C9F7EB
:100CD0007EF41F16BA0B620B730B840BBAF09150A3
:100CE000A1F0FF0FBB1F661F771F881FC2F70EC042
:100CF000BA0F621F731F841F48F487957795679515
:100D0000B795F7959E3F08F0B0CF9395880F08F000
:100D10009927EE0F9795879508950E94290788F0E7
:100D20009F5798F0B92F9927B751B0F0E1F0660FAF
:100D3000771F881F991F1AF0BA95C9F714C0B130F0
:100D400091F00E944307B1E008950C944307672F88
:100D5000782F8827B85F39F0B93FCCF3869577951F
:100D60006795B395D9F73EF4909580957095619508
:100D70007F4F8F4F9F4F0895E89409C097FB3EF433
:100D800090958095709561957F4F8F4F9F4F9923D8
:100D9000A9F0F92F96E9BB279395F6958795779556
:100DA0006795B795F111F8CFFAF4BB0F11F460FF16
:100DB0001BC06F5F7F4F8F4F9F4F16C0882311F06E
:100DC00096E911C0772321F09EE8872F762F05C082
:100DD000662371F096E8862F70E060E02AF09A951D
:100DE000660F771F881FDAF7880F9695879597F912
:100DF000089597F99F6780E870E060E008959FEF9D
:100E000080EC089500240A941616170618060906A1
:100E1000089500240A941216130614060506089570
:100E2000092E0394000C11F4882352F0BB0F40F4F8
:100E3000BF2B11F460FF04C06F5F7F4F8F4F9F4F38
:100E4000089557FD9058440F551F59F05F3F71F0BA
:100E50004795880F97FB991F61F09F3F79F0879521
:100E60000895121613061406551FF2CF4695F1DFAA
:100E700008C0161617061806991FF1CF869571053A
:100E8000610508940895E894BB2766277727CB016E
:100E900097F908950E945D070C9410070E940207BD
:100EA00038F00E94090720F0952311F00C94F90600
:100EB0000C94FF0611240C9444070E94210770F340
:100EC000959FC1F3950F50E0551F629FF001729FEF
:100ED000BB27F00DB11D639FAA27F00DB11DAA1FFE
:100EE000649F6627B00DA11D661F829F2227B00D4B
:100EF000A11D621F739FB00DA11D621F839FA00DD6
:100F0000611D221F749F3327A00D611D231F849F25
:100F1000600D211D822F762F6A2F11249F5750407C
:100F20009AF0F1F088234AF0EE0FFF1FBB1F661FF7
:100F3000771F881F91505040A9F79E3F510580F0C0
:100F40000C94F9060C9444075F3FE4F3983ED4F305
:100F5000869577956795B795F795E7959F5FC1F764
:100F6000FE2B880F911D9695879597F90895EE0FA2
:100F7000FF1F0590F491E02D099481E090E0F89432
:100F80000C94DB07FC018191861721F08823D9F7A7
:100F9000992708953197CF010895FB01DC01415055
:100FA000504030F08D910190801919F40020B9F76C
:0A0FB000881B990B0895F894FFCFF9
:100FBA0000000000F6005F008D004301BE009C00A7
:100FCA00B0005245414459000D0A0053454E4400B1
:0A0FDA0053454E542000307800000B
:00000001FF
