:100000000C945D000C9485000C9485000C94850084
:100010000C9485000C9485000C9485000C9485004C
:100020000C9485000C9485000C9485000C9485003C
:100030000C9485000C9485000C9485000C9485002C
:100040000C9460020C9485000C94D0020C94AA02CB
:100050000C9485000C9485000C9485000C9485000C
:100060000C9485000C9485000000000024002700FB
:100070002A0000000000250028002B0004040404CE
:100080000404040402020202020203030303030342
:10009000010204081020408001020408102001021F
:1000A00004081020000000080002010000030407FB
:1000B00000000000000000000C0411241FBECFEF60
:1000C000D8E0DEBFCDBF21E0A6E2B1E001C01D92C5
:1000D000A63DB207E1F711E0A0E0B1E0E8E0FCE006
:1000E00002C005900D92A632B107D9F710E0CDE518
:1000F000D0E004C02197FE010E94DE05CC35D10777
:10010000C9F70E9402030C9402060C940000E1EB74
:10011000F0E09491EDE9F0E02491E9E8F0E0E49179
:10012000EE2309F43CC0992339F1933091F038F46F
:100130009130A9F0923001F594B59F7D12C09730AF
:1001400091F09830A1F09430B9F4909180009F7DA7
:1001500003C0909180009F77909380000DC094B56C
:100160009F7794BD09C09091B0009F7703C0909194
:10017000B0009F7D9093B000F0E0EE0FFF1FEE58AF
:10018000FF4FA591B4919FB7F894811104C08C9151
:100190002095282302C0EC912E2B2C939FBF08950D
:1001A0003FB7F8948091330190913401A0913501CB
:1001B000B091360126B5A89B05C02F3F19F00196D6
:1001C000A11DB11D3FBFBA2FA92F982F8827820FDD
:1001D000911DA11DB11DBC01CD0142E0660F771F2D
:1001E000881F991F4A95D1F708958F929F92AF92D9
:1001F000BF92CF92DF92EF92FF920E94D0004B010C
:100200005C0184E6C82ED12CE12CF12C0E94D00098
:10021000DC01CB0188199909AA09BB09883E9340E2
:10022000A105B10598F321E0C21AD108E108F1084F
:1002300088EE880E83E0981EA11CB11CC114D10465
:10024000E104F10419F7FF90EF90DF90CF90BF9099
:10025000AF909F908F900895CF92DF92EF92FF9290
:100260000F931F93CF93DF936C017A018B01C0E052
:10027000D0E0CE15DF0581F0D8016D918D01D6015A
:10028000ED91FC910190F081E02DC6010995892B3B
:1002900011F02196EECF7E01C701DF91CF911F9122
:1002A0000F91FF90EF90DF90CF900895089580E038
:1002B00090E00895FC01538D448D252F30E0842F6C
:1002C00090E0821B930B541710F0CF96089501977E
:1002D0000895FC01918D828D981761F0828DDF0168
:1002E000A80FB11D5D968C91928D9F5F9F73928F29
:1002F00090E008958FEF9FEF0895FC01918D828D1E
:10030000981731F0828DE80FF11D858D90E00895EA
:100310008FEF9FEF0895FC01918D228D892F90E042
:10032000805C9F4F821B91098F739927089587E303
:1003300091E00E948B0121E0892B09F420E0822FBB
:100340000895FC01848DDF01A80FB11DA35ABF4F92
:100350002C91848D90E001968F739927848FA689C4
:10036000B7892C93A089B1898C91837080648C9318
:10037000938D848D981306C00288F389E02D8081C7
:100380008F7D80830895EF92FF920F931F93CF93F9
:10039000DF93EC0181E0888F9B8D8C8D981305C0D5
:1003A000E889F989808185FD26C0F62E0B8D10E045
:1003B0000F5F1F4F0F731127E02E8C8DE8120CC0BA
:1003C0000FB607FCFACFE889F989808185FFF5CF60
:1003D000CE010E94A101F1CF8B8DFE01E80FF11D2E
:1003E000E35AFF4FF0829FB7F8940B8FEA89FB899D
:1003F000808180620AC09FB7F894EE89FF8960838C
:10040000E889F98980818370806480839FBF81E05F
:1004100090E0DF91CF911F910F91FF90EF900895A1
:10042000CF93DF93EC01888D8823C9F0EA89FB899B
:10043000808185FD05C0A889B9898C9186FD0FC092
:100440000FB607FCF5CF808185FFF2CFA889B98967
:100450008C9185FFEDCFCE010E94A101E7CFDF9106
:10046000CF91089580E090E0892B29F00E949701B8
:1004700081110C9400000895CF93DF93009779F0D9
:10048000FC0101900020E9F73197AF01481B590B9F
:10049000BC0187E391E00E942C01EC0102C0C0E0A6
:1004A000D0E042E050E062E171E087E391E00E9439
:1004B0002C018C0F9D1FDF91CF9108950E94E405C0
:1004C0001F920F920FB60F9211242F933F938F9389
:1004D0009F93AF93BF9380912F0190913001A09192
:1004E0003101B091320130912E0123E0230F2D37DD
:1004F00020F40196A11DB11D05C026E8230F029628
:10050000A11DB11D20932E0180932F0190933001E6
:10051000A0933101B0933201809133019091340165
:10052000A0913501B09136010196A11DB11D8093B6
:10053000330190933401A0933501B0933601BF91FC
:10054000AF919F918F913F912F910F900FBE0F9080
:100550001F9018951F920F920FB60F9211242F9390
:100560003F934F935F936F937F938F939F93AF933B
:10057000BF93EF93FF9387E391E00E94A101FF9166
:10058000EF91BF91AF919F918F917F916F915F910B
:100590004F913F912F910F900FBE0F901F90189584
:1005A0001F920F920FB60F9211242F938F939F9348
:1005B000EF93FF93E0914701F09148018081E09132
:1005C0004D01F0914E0182FD12C090818091500149
:1005D0008F5F8F7320915101821751F0E09150018C
:1005E000F0E0E95CFE4F958F8093500101C080815F
:1005F000FF91EF919F918F912F910F900FBE0F90D0
:100600001F901895CF93DF9300D0CDB7DEB77894C5
:1006100084B5826084BD84B5816084BD85B5826007
:1006200085BD85B5816085BD80916E0081608093B8
:100630006E00109281008091810082608093810021
:100640008091810081608093810080918000816031
:10065000809380008091B10084608093B10080918C
:10066000B00081608093B00080917A0084608093B4
:100670007A0080917A00826080937A0080917A007B
:10068000816080937A0080917A00806880937A00FC
:100690001092C100E0914701F091480182E080830F
:1006A000E0914301F09144011082E0914501F09105
:1006B00046018FEC808310924F01E0914B01F09145
:1006C0004C0186E08083E0914901F0914A018081EC
:1006D00080618083E0914901F0914A0180818860C6
:1006E0008083E0914901F0914A0180818068808394
:1006F000E0914901F0914A0180818F7D8083EDE98D
:10070000F0E02491E9E8F0E08491882399F090E00A
:10071000880F991FFC01E859FF4FA591B491FC0186
:10072000EE58FF4F859194918FB7F894EC91E22B9E
:10073000EC938FBF85E191E00E943C020AE211E058
:1007400087E391E00E948B01181619060CF061C036
:1007500087E391E00E94690120912C0130912D01E5
:100760008D3089F08A3079F02530310560F4A901A7
:100770004F5F5F4F50932D0140932C01F901EA5DCB
:10078000FE4F808346C0F901EA5DFE4F1082109251
:100790002D0110922C0144E050E06BE171E086E203
:1007A00091E00E94F405892BA1F51A83098360E288
:1007B00070E089819A810E94E9059A838983009774
:1007C00041F040E150E0BE016F5F7F4F0E9439046D
:1007D000EECF80E291E00E943C0281E00E9487001F
:1007E0000E94F50080E00E9487000E94F50081E0F1
:1007F0000E9487000E94F50080E00E9487000E940E
:10080000F50081E00E9487000E94F50080E00E94D0
:1008100087000E94320294CFE7E3F1E01382128254
:1008200088EE93E0A0E0B0E084839583A683B7834D
:1008300084E091E09183808385EC90E095878487C4
:1008400084EC90E09787868780EC90E0918B808B9A
:1008500081EC90E0938B828B82EC90E0958B848B83
:1008600086EC90E0978B868B118E128E138E148EF1
:100870000895A0E0B0E0EFE3F4E00C9499055C018A
:100880006B017A016115710519F0FB019183808379
:10089000E114F10429F0C7010297839708F0E5C03D
:1008A000E5012196F5011081812F90E00E944F050E
:1008B000892B11F05E01F4CF1D3229F42196F50148
:1008C000118101E007C01B3221F4E5012296F501F8
:1008D000118100E0E114F10409F1F0E1EF16F104F7
:1008E00029F43FC010E3E114F10421F128E0E216FD
:1008F000F10401F154F4E2E0EE16F10421F5812C4B
:10090000912CA12CB0E4BB2E3EC0FAE0EF16F1040E
:1009100039F020E1E216F104B1F430C0103319F1DE
:10092000FAE0EF2EF12CACEC8A2E982CA82CACE03F
:10093000BA2E29C078E0E72EF12C812C912CA12C25
:10094000E0E1BE2E20C060E070E080E090E897011A
:100950000F2C000C440B550B0E946B0549015A01EA
:1009600012C0103359F488818F7D883509F0BACFD1
:1009700019812296026080E1E82EF12C812C912CC5
:10098000A12C68E0B62E40E060E070E0CB012701CA
:100990000F2C000C66087708FE0150ED352E310E45
:1009A00029E0231570F42FEB210F2A3118F439ECCC
:1009B000332E06C02FE9210F2A3118F529EA322EED
:1009C000310E232D30E02E153F05DCF447FD16C017
:1009D00086169706A806B90670F0A30192010E9438
:1009E0005B05630D711D811D911D613071058105D0
:1009F00020E8920710F04FEF01C041E021961081EE
:100A0000CBCF202F2170C114D10471F0442329F0E1
:100A10002197F601D183C08307C001FF19C0229737
:100A2000F601D183C08314C047FF12C0222329F0EE
:100A300060E070E080E090E804C06FEF7FEF8FEF40
:100A40009FE722E230E03093D5012093D40109C022
:100A5000222381F090958095709561957F4F8F4FFF
:100A60009F4F462F372F282F12C040E030E020E064
:100A700090E00DC097FFF5CF82E290E09093D50112
:100A80008093D4016FEF7FEF8FEF9FE7EACF642F62
:100A9000732F822FCDB7DEB7E1E10C94B50591112C
:100AA0000C945805803219F089508550C8F7089584
:100AB000992788270895DB018F939F930E948D05C6
:100AC000BF91AF91A29F800D911DA39F900DB29FEA
:100AD000900D11240895A1E21A2EAA1BBB1BFD0143
:100AE0000DC0AA1FBB1FEE1FFF1FA217B307E4070D
:100AF000F50720F0A21BB30BE40BF50B661F771F65
:100B0000881F991F1A9469F7609570958095909544
:100B10009B01AC01BD01CF0108950E94CF05A59FA7
:100B2000900DB49F900DA49F800D911D11240895E8
:100B30002F923F924F925F926F927F928F929F92ED
:100B4000AF92BF92CF92DF92EF92FF920F931F93DB
:100B5000CF93DF93CDB7DEB7CA1BDB0B0FB6F8948C
:100B6000DEBF0FBECDBF09942A88398848885F84CC
:100B70006E847D848C849B84AA84B984C884DF803D
:100B8000EE80FD800C811B81AA81B981CE0FD11D21
:100B90000FB6F894DEBF0FBECDBFED010895A29F42
:100BA000B001B39FC001A39F700D811D1124911D41
:100BB000B29F700D811D1124911D0895EE0FFF1F2E
:100BC0000590F491E02D099481E090E0F8940C9464
:100BD0000206FC018191861721F08823D9F7992715
:100BE00008953197CF010895FB01DC014150504039
:100BF00030F08D910190801919F40020B9F7881B0D
:080C0000990B0895F894FFCF51
:100C080000000000C3012C015A0110028B01690188
:100C18007D010D0A0052454144590043414C4C00A6
:060C2800464F554E44004A
:107E0000112484B714BE81FFF0D085E080938100F7
:107E100082E08093C00088E18093C10086E0809377
:107E2000C20080E18093C4008EE0C9D0259A86E02C
:107E300020E33CEF91E0309385002093840096BBD3
:107E4000B09BFECF1D9AA8958150A9F7CC24DD24C4
:107E500088248394B5E0AB2EA1E19A2EF3E0BF2EE7
:107E6000A2D0813461F49FD0082FAFD0023811F036
:107E7000013811F484E001C083E08DD089C08234E0
:107E800011F484E103C0853419F485E0A6D080C0E4
:107E9000853579F488D0E82EFF2485D0082F10E0AE
:107EA000102F00270E291F29000F111F8ED06801E7
:107EB0006FC0863521F484E090D080E0DECF843638
:107EC00009F040C070D06FD0082F6DD080E0C81688
:107ED00080E7D80618F4F601B7BEE895C0E0D1E017
:107EE00062D089930C17E1F7F0E0CF16F0E7DF06D8
:107EF00018F0F601B7BEE89568D007B600FCFDCFD4
:107F0000A601A0E0B1E02C9130E011968C91119780
:107F100090E0982F8827822B932B1296FA010C0160
:107F200087BEE89511244E5F5F4FF1E0A038BF0790
:107F300051F7F601A7BEE89507B600FCFDCF97BE46
:107F4000E89526C08437B1F42ED02DD0F82E2BD052
:107F50003CD0F601EF2C8F010F5F1F4F84911BD097
:107F6000EA94F801C1F70894C11CD11CFA94CF0C13
:107F7000D11C0EC0853739F428D08EE10CD085E9AC
:107F80000AD08FE07ACF813511F488E018D01DD067
:107F900080E101D065CF982F8091C00085FFFCCF94
:107FA0009093C60008958091C00087FFFCCF809118
:107FB000C00084FD01C0A8958091C6000895E0E648
:107FC000F0E098E1908380830895EDDF803219F02E
:107FD00088E0F5DFFFCF84E1DECF1F93182FE3DFCA
:107FE0001150E9F7F2DF1F91089580E0E8DFEE27F6
:047FF000FF270994CA
:027FFE00040479
:0400000300007E007B
:00000001FF
